{
  "contractName": "Voting",
  "abi": [
    {
      "inputs": [
        {
          "internalType": "string",
          "name": "optionA",
          "type": "string"
        },
        {
          "internalType": "string",
          "name": "optionB",
          "type": "string"
        }
      ],
      "payable": false,
      "stateMutability": "nonpayable",
      "type": "constructor"
    },
    {
      "anonymous": false,
      "inputs": [
        {
          "indexed": true,
          "internalType": "string",
          "name": "option",
          "type": "string"
        }
      ],
      "name": "OptionVoted",
      "type": "event"
    },
    {
      "constant": true,
      "inputs": [],
      "name": "getOwner",
      "outputs": [
        {
          "internalType": "address",
          "name": "",
          "type": "address"
        }
      ],
      "payable": false,
      "stateMutability": "view",
      "type": "function"
    },
    {
      "constant": false,
      "inputs": [
        {
          "internalType": "string",
          "name": "option",
          "type": "string"
        }
      ],
      "name": "vote",
      "outputs": [],
      "payable": false,
      "stateMutability": "nonpayable",
      "type": "function"
    },
    {
      "constant": true,
      "inputs": [
        {
          "internalType": "string",
          "name": "option",
          "type": "string"
        }
      ],
      "name": "getVoteCount",
      "outputs": [
        {
          "internalType": "uint256",
          "name": "",
          "type": "uint256"
        }
      ],
      "payable": false,
      "stateMutability": "view",
      "type": "function"
    },
    {
      "constant": false,
      "inputs": [
        {
          "internalType": "address",
          "name": "voter",
          "type": "address"
        }
      ],
      "name": "allowVote",
      "outputs": [],
      "payable": false,
      "stateMutability": "nonpayable",
      "type": "function"
    }
  ],
  "bytecode": "0x608060405234801561001057600080fd5b50604051610a11380380610a118339818101604052604081101561003357600080fd5b810190808051604051939291908464010000000082111561005357600080fd5b8382019150602082018581111561006957600080fd5b825186600182028301116401000000008211171561008657600080fd5b8083526020830192505050908051906020019080838360005b838110156100ba57808201518184015260208101905061009f565b50505050905090810190601f1680156100e75780820380516001836020036101000a031916815260200191505b506040526020018051604051939291908464010000000082111561010a57600080fd5b8382019150602082018581111561012057600080fd5b825186600182028301116401000000008211171561013d57600080fd5b8083526020830192505050908051906020019080838360005b83811015610171578082015181840152602081019050610156565b50505050905090810190601f16801561019e5780820380516001836020036101000a031916815260200191505b50604052505050336000806101000a81548173ffffffffffffffffffffffffffffffffffffffff021916908373ffffffffffffffffffffffffffffffffffffffff16021790555060006001836040518082805190602001908083835b6020831061021d57805182526020820191506020810190506020830392506101fa565b6001836020036101000a03801982511681845116808217855250505050505090500191505090815260200160405180910390208190555060006001826040518082805190602001908083835b6020831061028c5780518252602082019150602081019050602083039250610269565b6001836020036101000a038019825116818451168082178552505050505050905001915050908152602001604051809103902081905550505061073d806102d46000396000f3fe608060405234801561001057600080fd5b506004361061004c5760003560e01c8063069953a7146100515780634f4bb68f14610120578063893d20e814610164578063fc36e15b146101ae575b600080fd5b61010a6004803603602081101561006757600080fd5b810190808035906020019064010000000081111561008457600080fd5b82018360208201111561009657600080fd5b803590602001918460018302840111640100000000831117156100b857600080fd5b91908080601f016020809104026020016040519081016040528093929190818152602001838380828437600081840152601f19601f820116905080830192505050505050509192919290505050610269565b6040518082815260200191505060405180910390f35b6101626004803603602081101561013657600080fd5b81019080803573ffffffffffffffffffffffffffffffffffffffff1690602001909291905050506102dc565b005b61016c6103f9565b604051808273ffffffffffffffffffffffffffffffffffffffff1673ffffffffffffffffffffffffffffffffffffffff16815260200191505060405180910390f35b610267600480360360208110156101c457600080fd5b81019080803590602001906401000000008111156101e157600080fd5b8201836020820111156101f357600080fd5b8035906020019184600183028401116401000000008311171561021557600080fd5b91908080601f016020809104026020016040519081016040528093929190818152602001838380828437600081840152601f19601f820116905080830192505050505050509192919290505050610422565b005b60006001826040518082805190602001908083835b602083106102a1578051825260208201915060208101905060208303925061027e565b6001836020036101000a0380198251168184511680821785525050505050509050019150509081526020016040518091039020549050919050565b6000809054906101000a900473ffffffffffffffffffffffffffffffffffffffff1673ffffffffffffffffffffffffffffffffffffffff163373ffffffffffffffffffffffffffffffffffffffff161461039e576040517f08c379a000000000000000000000000000000000000000000000000000000000815260040180806020018281038252601c8152602001807f4f6e6c79206f776e65722063616e20616c6c6f7720616464726573730000000081525060200191505060405180910390fd5b6001600360008373ffffffffffffffffffffffffffffffffffffffff1673ffffffffffffffffffffffffffffffffffffffff16815260200190815260200160002060006101000a81548160ff02191690831515021790555050565b60008060009054906101000a900473ffffffffffffffffffffffffffffffffffffffff16905090565b600360003373ffffffffffffffffffffffffffffffffffffffff1673ffffffffffffffffffffffffffffffffffffffff16815260200190815260200160002060009054906101000a900460ff166104e1576040517f08c379a000000000000000000000000000000000000000000000000000000000815260040180806020018281038252601b8152602001807f41646472657373206e6f7420616c6c6f77656420746f20766f7465000000000081525060200191505060405180910390fd5b60001515600260003373ffffffffffffffffffffffffffffffffffffffff1673ffffffffffffffffffffffffffffffffffffffff16815260200190815260200160002060009054906101000a900460ff161515146105a7576040517f08c379a00000000000000000000000000000000000000000000000000000000081526004018080602001828103825260188152602001807f4f6e6c79206f6e6520766f746520697320616c6c6f776564000000000000000081525060200191505060405180910390fd5b6001816040518082805190602001908083835b602083106105dd57805182526020820191506020810190506020830392506105ba565b6001836020036101000a0380198251168184511680821785525050505050509050019150509081526020016040518091039020600081548092919060010191905055506001600260003373ffffffffffffffffffffffffffffffffffffffff1673ffffffffffffffffffffffffffffffffffffffff16815260200190815260200160002060006101000a81548160ff021916908315150217905550806040518082805190602001908083835b602083106106ac5780518252602082019150602081019050602083039250610689565b6001836020036101000a03801982511681845116808217855250505050505090500191505060405180910390207f4d2a62efc7f8d8f9fbe8bd861e6c0ab20ab1f9ffe7a8b14334b880cf45df3b7260405160405180910390a25056fea265627a7a7231582011a3d2ddd9e105fa9c972d623fb68e38752e7ad1064da18d668b09f6e03aea5964736f6c63430005100032",
  "source": "//SPDX-License-Identifier: UNLICENSED\npragma solidity >=0.5.0 <0.7.0;\n\ncontract Voting {\n    address private owner;\n    mapping(string => uint256) voteOptions;\n    mapping(address => bool) hasVoted;\n    mapping(address => bool) isAllowed;\n\n    constructor(string memory optionA, string memory optionB) public  {\n        owner = msg.sender;\n        voteOptions[optionA] = 0;\n        voteOptions[optionB] = 0;\n    }\n\n    modifier isOwner(){\n        require(msg.sender == owner, \"Only owner can allow address\");\n        _;\n    }\n\n    function getOwner() public view returns (address){\n        return owner;\n    }\n\n    event OptionVoted(string indexed option);\n\n    function vote(string memory option) public {\n        require(isAllowed[msg.sender], \"Address not allowed to vote\");\n        require(hasVoted[msg.sender]==false, \"Only one vote is allowed\");\n        voteOptions[option]++;\n        hasVoted[msg.sender] = true;\n        emit OptionVoted(option);\n    }\n\n    function getVoteCount(string memory option) public view returns (uint256) {\n        return voteOptions[option];\n    }\n\n    function allowVote(address voter) public isOwner {\n        isAllowed[voter] = true;\n    }\n}\n",
  "sourcePath": "/home/ivan/Escritorio/Repo/curso-daap/contracts/Voting.sol",
  "compiler": {
    "name": "solc",
    "version": "0.5.16+commit.9c3226ce.Emscripten.clang"
  },
  "schemaVersion": "3.2.2",
  "updatedAt": "2020-07-29T16:38:02.122Z",
  "networkType": "ethereum",
  "devdoc": {
    "methods": {}
  },
  "userdoc": {
    "methods": {}
  }
}